:1000000027C1000053C1000051C100004FC10000D2
:100010004DC100004BC1000049C1000047C10000B4
:1000200045C1000041C400003FC400003DC40000C1
:100030003DC100003BC1000039C1000037C10000D4
:1000400035C1000033C1000031C100002FC10000E4
:100050002DC100002BC1000029C10000DBC300003E
:1000600025C1000023C1000021C100001FC1000004
:100070001DC100001BC1000019C1000017C1000014
:1000800015C1000013C1000011C100000FC1000024
:100090000DC100000BC1000009C1000007C1000034
:1000A00005C1000003C1000001C10000FFC0000045
:1000B000FDC00000FBC00000F9C00000F7C0000058
:1000C000F5C00000F3C00000F1C00000EFC0000068
:1000D000EDC00000EBC00000E9C00000E7C0000078
:1000E000E5C00000B001B301A201A601AA01EA0126
:1000F000B701BB01C101C501C901CF01D301D701BE
:10010000EA01DD01E101E5018B0691069706A306F0
:10011000AF063E07BB06C406CD06D906E506F106C6
:1001200002070E073E071A072607320700002000C5
:100130002300260029002C002F00320000010000BF
:1001400003010601090100002100240027002A0004
:100150002D003000330001010000040107010A01F5
:1001600000002200250028002B002E003100340062
:1001700002010000050108010B0105050505070541
:1001800008080808020202020A0A08080404040413
:10019000010101010101010103030303030303033F
:1001A000040707070C0C0C0C0C0C0C0C02020202CE
:1001B00006060606060606060B0B0B0B0B0B0B0BB7
:1001C0000102102020080810204010204080020169
:1001D000020108040201010204081020408080404E
:1001E000201008040201800402018040201008044D
:1001F00002010804020101020408102040800102EB
:1002000004081020408000000A0B02090C0D0E08A3
:1002100007030401000000000000000000000000CF
:1002200000000000000000000000000000000000CE
:10023000000012111000000000000000000000008B
:10024000000000000000000000000000BD07690879
:1002500011241FBECFEFD1E2DEBFCDBF00E00CBF47
:1002600012E0A0E0B2E0E0EBF1E100E00BBF02C081
:1002700007900D92A034B107D9F722E0A0E4B2E0D4
:1002800001C01D92A33BB207E1F711E0C7E2D1E044
:1002900000E005C021970109802FFE0158D7C63222
:1002A000D10780E00807B1F77DD371C7A9CECF92FF
:1002B000DF92EF92FF920F931F93CF93DF936C0126
:1002C0007A018B01C0E0D0E0CE15DF0589F0D801BE
:1002D0006D918D01D601ED91FC910190F081E02DA1
:1002E000C6011995892B11F47E0102C02196ECCF2D
:1002F000C701DF91CF911F910F91FF90EF90DF9099
:10030000CF900895362F90E0FC01EA5FFD4F4491B5
:10031000FC01E054FE4F2491FC01E658FE4F9491FD
:10032000992309F46AC0442309F454C050E0FA0147
:100330003197E231F10508F04DC08827EE58FF4FA4
:100340008F4F05C7809180008F7707C08091800014
:100350008F7D03C080918000877F809380003AC0AA
:1003600084B58F7702C084B58F7D84BD33C0809102
:10037000B0008F7703C08091B0008F7D8093B00074
:1003800029C0809190008F7707C0809190008F7D69
:1003900003C080919000877F809390001BC0809164
:1003A000A0008F7707C08091A0008F7D03C080914F
:1003B000A000877F8093A0000DC0809120018F77DF
:1003C00007C0809120018F7D03C080912001877F2D
:1003D00080932001E92FF0E0EE0FFF1FE05AFE4F5F
:1003E000A591B4918FB7F894EC91311103C0209589
:1003F0002E2301C02E2B2C938FBF0895CF93DF9314
:1004000090E0FC01E054FE4F2491FC01E658FE4FC1
:100410008491882361F190E0880F991FFC01EA5BC9
:10042000FE4FC591D491FC01E05AFE4FA591B491C5
:10043000611109C09FB7F894888120958223888331
:10044000EC912E230BC0623061F49FB7F894388191
:10045000822F809583238883EC912E2B2C939FBF32
:1004600006C08FB7F894E8812E2B28838FBFDF91C9
:10047000CF9108953FB7F8948091860290918702BA
:10048000A0918802B091890226B5A89B05C02F3F94
:1004900019F00196A11DB11D3FBFBA2FA92F982FAA
:1004A0008827820F911DA11DB11DBC01CD0142E025
:1004B000660F771F881F991F4A95D1F708952091DD
:1004C0008C0230918D022817390771F490918A02BD
:1004D00080918B02981741F0E0918A02F0E0EF5B87
:1004E000FD4F808190E008958FEF9FEF089508956C
:1004F0001F93CF93DF93DC015C962D913C915D9728
:100500002115310539F481E090E013969C938E9388
:1005100012973DC05196ED91FC91529750969C9147
:100520005097892F80951FB75E964C915E9741FB3F
:10053000772770F941FD6095F8944081772311F099
:10054000492B01C048234083E9012197F1F748E096
:10055000508160FF02C0592B01C058235083E9012C
:100560002197F1F76695415099F7772321F0908113
:100570008923808303C08081982B90831FBF5C9662
:100580008D919C915D970197F1F721E030E0C901D1
:10059000DF91CF911F91089520918C0230918D02AF
:1005A0002817390761F480918B0220918A0290E02C
:1005B000805C9F4F821B910960E470E093C580E0EE
:1005C00090E0089520918C0230918D022817390710
:1005D000B9F490918A0280918B02981789F0E0918A
:1005E0008A02F0E0EF5BFD4F808120918A0230E0CB
:1005F0002F5F3F4F2F73332720938A0290E0089597
:100600008FEF9FEF0895E0918C02F0918D02E81733
:10061000F90769F4A389B4899C9185898095892318
:100620008C9310928D0210928C0281E0089580E0EC
:100630000895089580E090E00895009761F0FC012E
:1006400001900020E9F73197AF01481B590BBC011D
:1006500084E992E02CCE80E090E008958F929F9202
:10066000AF92BF920F931F93CF93DF93CDB7DEB7B7
:10067000A1970FB6F894DEBF0FBECDBF19A24230CE
:1006800008F44AE08E010F5D1F4F842E912CA12C9F
:10069000B12CA501940139D5E62FB901CA01015049
:1006A0001109EA3014F4E05D01C0E95CD801EC9373
:1006B000232B242B252B69F7C801BFDFA1960FB68A
:1006C000F894DEBF0FBECDBFDF91CF911F910F9188
:1006D000BF90AF909F908F900895CF93DF93EC01E0
:1006E00082E192E0AADF688170E080E090E040E182
:1006F000B5DF8BE192E0A1DF698170E080E090E0FE
:1007000040E1ACDF6A8170E080E090E040E1A6DF8C
:100710006B8170E080E090E040E1A0DF6C8170E0F0
:1007200080E090E040E19ADF84E292E0DF91CF91B7
:1007300084CFEF92FF920F931F93CF93DF931F927B
:10074000CDB7DEB7082F162F7A0160E080918E02B8
:100750007983D8DD8DE58CBD81E08DBD0EBD0000B7
:1007600079810DB407FEFDCF8EB5F7018193A12FDE
:10077000B72F97012B5F3F4F8D918EBD00000DB4B9
:1007800007FEFDCF8EB58193E217F307A9F761E06D
:1007900080918E020F90DF91CF911F910F91FF906A
:1007A000EF90B0CD0F931F93CF938B01C82FCF77CE
:1007B000AB0160E070E08C2FBCDFA80160E070E06E
:1007C0008C2FB7DFA80160E070E08C2FCF911F91D4
:1007D0000F91AFCFCF93DF93CDB7DEB729970FB689
:1007E000F894DEBF0FBECDBF498758876F837E83E5
:1007F000AE014F5F5F4FBE016A5F7F4F805899DF48
:1008000029960FB6F894DEBF0FBECDBFDF91CF9112
:100810000895B9D41F920F920FB60F9211242F93FF
:100820003F938F939F93AF93BF9380918202909158
:100830008302A0918402B09185023091810223E06D
:10084000230F2D3720F40196A11DB11D05C026E808
:10085000230F0296A11DB11D209381028093820275
:1008600090938302A0938402B093850280918602C4
:1008700090918702A0918802B09189020196A11DF2
:10088000B11D8093860290938702A0938802B09353
:100890008902BF91AF919F918F913F912F910F90BE
:1008A0000FBE0F901F9018951F920F920FB60F92C8
:1008B00011240BB60F922F933F934F935F936F9337
:1008C0007F938F939F93AF93BF93EF93FF93E091A9
:1008D0008C02F0918D02309709F451C0968DA68557
:1008E000B785858591FF04C09C91892329F447C071
:1008F0009C91892309F043C0A389B4899C9185897F
:10090000809589238C93868997890197F1F7608D6B
:10091000718DA685B785558538E020E0CB0101971C
:10092000F1F7822F90E095958795282F4C914523DC
:1009300009F02068315091F7868D81FD20958091D6
:100940008B0290E001968F73992730918A023817B5
:1009500049F0A0918B02B0E0AF5BBD4F2C93809328
:100960008B0203C0868D8160868F828D938D019767
:10097000F1F7A389B4899C918589892B8C93FF9188
:10098000EF91BF91AF919F918F917F916F915F9107
:100990004F913F912F910F900BBE0F900FBE0F9074
:1009A0001F901895CF93DF93CDB7DEB729970FB679
:1009B000F894DEBF0FBECDBF789484B5826084BD4D
:1009C00084B5816084BD85B5826085BD85B5816053
:1009D00085BD80916E00816080936E0010928100D1
:1009E000809181008260809381008091810081608C
:1009F000809381008091800081608093800080914D
:100A0000B10084608093B1008091B00081608093D8
:100A1000B00080919100826080939100809191005C
:100A2000816080939100809190008160809390001C
:100A30008091A10082608093A1008091A1008160DB
:100A40008093A1008091A00081608093A00080919C
:100A50002101826080932101809121018160809336
:100A600021018091200181608093200180917A0092
:100A7000846080937A0080917A00826080937A000B
:100A800080917A00816080937A0080917A008068FA
:100A900080937A001092C10061E080918E02AEDCFA
:100AA00061E080918E022EDC61E080919002A6DCF4
:100AB00061E08091900226DC61E0809192029EDCF0
:100AC0001091920261E0812F99DC60E0812F1ADCA5
:100AD00040E050E060E071EF83E27CDE43E151E012
:100AE00060E070E185E276DE4AE151E060E070E1CD
:100AF00084E270DE41E15FEF60E071EF86E26ADE82
:100B00004DE05FEF6FE071EF87E264DE45E050E0BB
:100B100060E070E18AE25EDE40E050E060E071EFAC
:100B20008BE258DE40E050E060E071EF8CE252DE94
:100B300040E050E060E070E180E04CDE40E054E1F5
:100B400061E071EF80E146DE1E821F821886198601
:100B5000AE014F5F5F4FBE016A5F7F4F80EAE9DD04
:100B60001092AF021092AE021092AD021092AC023F
:100B70001092AB021092AA028DE991E09093B1021B
:100B80008093B0028091A00296EF980F943048F0C5
:100B90002EEC280F243028F022EC280F283008F003
:100BA0006EC02DEB30E03093AB022093AA022BE90C
:100BB00031E03093AD022093AC022CE231E030936F
:100BC000AF022093AE02943060F02EEC280F243058
:100BD00040F022EC280F283008F4C7C1A0E0B0E0B4
:100BE000C6C1A8E6B0E0E8E6F0E02081943018F055
:100BF0008E53883010F081E001C084E0822B8C930A
:100C00008091A00296EF980F943058F02EEC280FA8
:100C1000243038F022EC280F283030F020E030E08B
:100C200005C02BE630E002C02DE630E03093A8028C
:100C30002093A702943010F49AEF0BC0823381F016
:100C4000833381F0843381F092EC980F983070F404
:100C500092EC980F81E001C0880F9A95EAF707C0DF
:100C600088E005C084E003C082E001C081E0809399
:100C7000A9028091B0029091B1020197F1F78091A1
:100C8000AE029091AF02892B19F180918C02909164
:100C90008D0222E084399207D9F0009709F0B3DC85
:100CA0008091B2028E7F8093B20210928B021092DA
:100CB0008A0284E992E090938D0280938C02E09105
:100CC000A702F091A80290818091A902892B8083CC
:100CD00087E292E0B2DC84E292E0AFDC60E08091F7
:100CE000900210DB009192021091930261E0802F3C
:100CF00085DBF801FF27EA5FFD4FE4914E2F50E0BE
:100D0000FA013197E231F10508F0B8C08827EC57B5
:100D1000FF4F8F4F1CC284B5806884BD84E687BDB9
:100D2000B0C084B5806284BD84E688BDAAC08091CD
:100D3000800080688093800084E690E09093890032
:100D4000809388009EC080918000806280938000A4
:100D500084E690E090938B0080938A0092C080910B
:100D6000800088608093800084E690E090938D00FE
:100D700080938C0086C08091B00080688093B00022
:100D800084E68093B3007DC08091B0008062809340
:100D9000B00084E68093B40074C0809190008068B5
:100DA0008093900084E690E090939900809398005F
:100DB00068C08091900080628093900084E690E00B
:100DC00090939B0080939A005CC080919000886013
:100DD0008093900084E690E090939D0080939C0027
:100DE00050C08091A00080688093A0008091A000F6
:100DF0008F7B8093A00084E690E09093A90080937D
:100E0000A8003FC08091A00080628093A00084E68B
:100E100090E09093AB008093AA0033C08091A00033
:100E200088608093A00084E690E09093AD0080936A
:100E3000AC0027C08091200180688093200184E667
:100E400090E090932901809328011BC0809120019C
:100E500080628093200184E690E090932B01809340
:100E60002A010FC08091200188608093200184E6D0
:100E700090E090932D0180932C0103C060E0802FBF
:100E800041DA61E081E3BADA60E081E33BDA61E014
:100E900080E3B4DA60E080E335DA45EC51E060E00D
:100EA00071EF8CE697DCBE016F5F7F4F8CE67ADCDA
:100EB000CE01019612DCBE016F5F7F4F81E272DCD2
:100EC0008DE292E0BADBCE01019607DC41E050E012
:100ED00060E070E081E27EDC40E050E0BA018DE24B
:100EE00079DC00E010E0BE016F5F7F4F81E25ADCE9
:100EF0008DE292E0A2DBCE010196EFDBBE016F5FD7
:100F00007F4F8DE24FDC86E392E097DBCE010196C6
:100F1000E4DBB0DA4B015C0188EEC82E83E0D82E0A
:100F2000E12CF12CA7DADC01CB0188199909AA0977
:100F3000BB09883E9340A105B10558F081E0C81A6D
:100F4000D108E108F10828EE820E23E0921EA11CD0
:100F5000B11CC114D104E104F10421F701151105FC
:100F600009F4C1CF0E940000BECFA8E6B0E028304F
:100F700008F439CEE0E0F0E038CECF93CFB7F89464
:100F800080914002811123C0EFEAF1E08491E5EF06
:100F9000F1E09491E82FF0E0EE0FFF1FEA5BFE4FC7
:100FA000A591B491EC91E92319F461E085E3AAD904
:100FB00061E085E323DA8CB580618CBD8CB58064FB
:100FC0008CBD61E084E31ADA61E083E317DA809193
:100FD00040028F5F80934002CFBF8AE090E0909301
:100FE0008F0280938E0280E290E090939102809332
:100FF000900289E090E09093930280939202109285
:1010000097021092960288EE93E0A0E0B0E0809301
:10101000980290939902A0939A02B0939B0284E065
:1010200092E090939502809394021092AB021092FA
:10103000AA021092AD021092AC021092AF0210926E
:10104000AE021092B1021092B0026091B2026E7FB5
:101050006D7F6093B2026695617081E068278FE0D2
:1010600051D961E08FE0CAD9EFECF1E0E491E0936F
:10107000A402E9E8F1E0E491F0E0EE0FFF1FE05A8E
:10108000FE4F859194919093A6028093A50260E013
:101090008EE0B4D98091B20281FD03C061E08EE0A0
:1010A00031D98EE08093A002EEECF1E0E491E09380
:1010B000A102E8E8F1E0E491F0E0EE0FFF1FE45D4B
:1010C000FE4F859194919093A3028093A202CF91B9
:1010D000089584E092E0909395028093940284E9CD
:1010E00092E091CA97FB072E16F4009406D077FD84
:1010F00008D035D007FC05D03EF4909581959F4FE0
:101100000895709561957F4F0895A1E21A2EAA1B4C
:10111000BB1BFD010DC0AA1FBB1FEE1FFF1FA217A7
:10112000B307E407F50720F0A21BB30BE40BF50BA4
:10113000661F771F881F991F1A9469F7609570952D
:10114000809590959B01AC01BD01CF010895EE0FF4
:10115000FF1F881F8BBF0790F691E02D1994AA1BE3
:10116000BB1B51E107C0AA1FBB1FA617B70710F092
:10117000A61BB70B881F991F5A95A9F780959095C4
:10118000BC01CD01089581E090E0F89400C011E029
:10119000C7E2D1E000E005C0802FFE01D8DF219634
:1011A000011DC832D10780E00807B1F7F894FFCFDE
:1011B00000000000780257011A037702CC02E20215
:1011C0005F027374617475733A20002C206461743B
:1011D000613A20000D0A0052454144590061637490
:1011E00075616C3A20007461726765743A20000082
:00000001FF
