:1000000027C1000053C1000051C100004FC10000D2
:100010004DC100004BC1000049C1000047C10000B4
:1000200045C10000FFC30000FDC30000FBC300008A
:100030003DC100003BC1000039C1000037C10000D4
:1000400035C1000033C1000031C100002FC10000E4
:100050002DC100002BC1000029C1000099C3000080
:1000600025C1000023C1000021C100001FC1000004
:100070001DC100001BC1000019C1000017C1000014
:1000800015C1000013C1000011C100000FC1000024
:100090000DC100000BC1000009C1000007C1000034
:1000A00005C1000003C1000001C10000FFC0000045
:1000B000FDC00000FBC00000F9C00000F7C0000058
:1000C000F5C00000F3C00000F1C00000EFC0000068
:1000D000EDC00000EBC00000E9C00000E7C0000078
:1000E000E5C00000B001B301A201A601AA01EA0126
:1000F000B701BB01C101C501C901CF01D301D701BE
:10010000EA01DD01E101E5014A06500656066206F4
:100110006E06FD067A0683068C069806A406B006CF
:10012000C106CD06FD06D906E506F1060000200051
:100130002300260029002C002F00320000010000BF
:1001400003010601090100002100240027002A0004
:100150002D003000330001010000040107010A01F5
:1001600000002200250028002B002E003100340062
:1001700002010000050108010B0105050505070541
:1001800008080808020202020A0A08080404040413
:10019000010101010101010103030303030303033F
:1001A000040707070C0C0C0C0C0C0C0C02020202CE
:1001B00006060606060606060B0B0B0B0B0B0B0BB7
:1001C0000102102020080810204010204080020169
:1001D000020108040201010204081020408080404E
:1001E000201008040201800402018040201008044D
:1001F00002010804020101020408102040800102EB
:1002000004081020408000000A0B02090C0D0E08A3
:1002100007030401000000000000000000000000CF
:1002200000000000000000000000000000000000CE
:10023000000012111000000000000000000000008B
:100240000000000000000000000000009C074808BB
:1002500011241FBECFEFD1E2DEBFCDBF00E00CBF47
:1002600012E0A0E0B2E0EEE6F1E100E00BBF02C078
:1002700007900D92AE32B107D9F722E0AEE2B2E0BC
:1002800001C01D92A13AB207E1F711E0C7E2D1E047
:1002900000E005C021970109802FFE0137D7C63243
:1002A000D10780E00807B1F73BD350C7A9CECF9262
:1002B000DF92EF92FF920F931F93CF93DF936C0126
:1002C0007A018B01C0E0D0E0CE15DF0589F0D801BE
:1002D0006D918D01D601ED91FC910190F081E02DA1
:1002E000C6011995892B11F47E0102C02196ECCF2D
:1002F000C701DF91CF911F910F91FF90EF90DF9099
:10030000CF900895362F90E0FC01EA5FFD4F4491B5
:10031000FC01E054FE4F2491FC01E658FE4F9491FD
:10032000992309F46AC0442309F454C050E0FA0147
:100330003197E231F10508F04DC08827EE58FF4FA4
:100340008F4FE4C6809180008F7707C08091800036
:100350008F7D03C080918000877F809380003AC0AA
:1003600084B58F7702C084B58F7D84BD33C0809102
:10037000B0008F7703C08091B0008F7D8093B00074
:1003800029C0809190008F7707C0809190008F7D69
:1003900003C080919000877F809390001BC0809164
:1003A000A0008F7707C08091A0008F7D03C080914F
:1003B000A000877F8093A0000DC0809120018F77DF
:1003C00007C0809120018F7D03C080912001877F2D
:1003D00080932001E92FF0E0EE0FFF1FE05AFE4F5F
:1003E000A591B4918FB7F894EC91311103C0209589
:1003F0002E2301C02E2B2C938FBF0895CF93DF9314
:1004000090E0FC01E054FE4F2491FC01E658FE4FC1
:100410008491882361F190E0880F991FFC01EA5BC9
:10042000FE4FC591D491FC01E05AFE4FA591B491C5
:10043000611109C09FB7F894888120958223888331
:10044000EC912E230BC0623061F49FB7F894388191
:10045000822F809583238883EC912E2B2C939FBF32
:1004600006C08FB7F894E8812E2B28838FBFDF91C9
:10047000CF9108953FB7F8948091740290917502DE
:10048000A0917602B091770226B5A89B05C02F3FB8
:1004900019F00196A11DB11D3FBFBA2FA92F982FAA
:1004A0008827820F911DA11DB11DBC01CD0142E025
:1004B000660F771F881F991F4A95D1F708952091DD
:1004C0007A0230917B022817390771F490917802F3
:1004D00080917902981741F0E0917802F0E0E15DB7
:1004E000FD4F808190E008958FEF9FEF089508956C
:1004F0001F93CF93DF93DC015C962D913C915D9728
:100500002115310539F481E090E013969C938E9388
:1005100012973DC05196ED91FC91529750969C9147
:100520005097892F80951FB75E964C915E9741FB3F
:10053000772770F941FD6095F8944081772311F099
:10054000492B01C048234083E9012197F1F748E096
:10055000508160FF02C0592B01C058235083E9012C
:100560002197F1F76695415099F7772321F0908113
:100570008923808303C08081982B90831FBF5C9662
:100580008D919C915D970197F1F721E030E0C901D1
:10059000DF91CF911F91089520917A0230917B02D3
:1005A0002817390769F4809179022091780290E048
:1005B000805C9F4F821B910960E470E072C50895D2
:1005C00080E090E0089520917A0230917B02281714
:1005D0003907B9F49091780280917902981789F0DF
:1005E000E0917802F0E0E15DFD4F8081209178029A
:1005F00030E02F5F3F4F2F7333272093780290E036
:1006000008958FEF9FEF0895E0917A02F0917B02B9
:10061000E817F90769F4A389B4899C9185898095C5
:1006200089238C9310927B0210927A0281E00895C4
:1006300080E00895089580E090E00895009761F0CB
:10064000FC0101900020E9F73197AF01481B590BDD
:10065000BC0182E892E02BCE80E090E008958F927A
:100660009F92AF92BF920F931F93CF93DF93CDB71B
:10067000DEB7A1970FB6F894DEBF0FBECDBF19A2AB
:10068000423008F44AE08E010F5D1F4F842E912CFA
:10069000A12CB12CA501940117D5E62FB901CA01EF
:1006A00001501109EA3014F4E05D01C0E95CD801A1
:1006B000EC93232B242B252B69F7C801BFDFA196D0
:1006C0000FB6F894DEBF0FBECDBFDF91CF911F9163
:1006D0000F91BF90AF909F908F900895EF92FF92EF
:1006E0001F93CF93DF931F921F92CDB7DEB7182FC2
:1006F0007B0160E080917C0249835A8303DE8DE5B3
:100700008CBD81E08DBD1EBD00005A8149810DB4B4
:1007100007FEFDCF8EB5FA018193D701119797019E
:100720002D5F3F4F8D918EBD00000DB407FEFDCFB4
:100730008EB58193A217B307A9F761E080917C027F
:100740000F900F90DF91CF911F91FF90EF90DACD36
:10075000CF93DF93CDB7DEB729970FB6F894DEBFFE
:100760000FBECDBF498758876F837E83AE014F5F31
:100770005F4FBE016A5F7F4F8058B0DF29960FB68A
:10078000F894DEBF0FBECDBFDF91CF910895DAD4CC
:100790001F920F920FB60F9211242F933F938F93B6
:1007A0009F93AF93BF938091700290917102A0913B
:1007B0007202B091730230916F0223E0230F2D3744
:1007C00020F40196A11DB11D05C026E8230F029655
:1007D000A11DB11D20936F0280937002909371024E
:1007E000A0937202B093730280917402909175028B
:1007F000A0917602B09177020196A11DB11D809360
:10080000740290937502A0937602B0937702BF9121
:10081000AF919F918F913F912F910F900FBE0F90AD
:100820001F9018951F920F920FB60F9211240BB6BE
:100830000F922F933F934F935F936F937F938F9379
:100840009F93AF93BF93EF93FF93E0917A02F09160
:100850007B02309709F451C0968DA685B7858585B2
:1008600091FF04C09C91892329F447C09C9189235E
:1008700009F043C0A389B4899C9185898095892317
:100880008C93868997890197F1F7608D718DA68584
:10089000B785558538E020E0CB010197F1F7822F2D
:1008A00090E095958795282F4C91452309F0206875
:1008B000315091F7868D81FD20958091790290E0ED
:1008C00001968F73992730917802381749F0A091DB
:1008D0007902B0E0A15DBD4F2C938093790203C0F3
:1008E000868D8160868F828D938D0197F1F7A38924
:1008F000B4899C918589892B8C93FF91EF91BF914D
:10090000AF919F918F917F916F915F914F913F91A7
:100910002F910F900BBE0F900FBE0F901F90189548
:10092000CF93DF93CDB7DEB729970FB6F894DEBF2C
:100930000FBECDBF789484B5826084BD84B58160DC
:1009400084BD85B5826085BD85B5816085BD80919A
:100950006E00816080936E00109281008091810012
:10096000826080938100809181008160809381000A
:10097000809180008160809380008091B1008460CC
:100980008093B1008091B00081608093B00080912D
:1009900091008260809391008091910081608093AA
:1009A0009100809190008160809390008091A100DF
:1009B00082608093A1008091A10081608093A1005A
:1009C0008091A00081608093A000809121018260CD
:1009D0008093210180912101816080932101809188
:1009E000200181608093200180917A00846080934F
:1009F0007A0080917A00826080937A0080917A00F8
:100A0000816080937A0080917A00806880937A0078
:100A10001092C10061E080917C02F0DC61E0809185
:100A20007C0270DC61E080917E02E8DC61E0809114
:100A30007E0268DC61E080918002E0DC109180023F
:100A400061E0812FDBDC60E0812F5CDC45E050E081
:100A500060E070E083E27CDE40E553EC60E070E053
:100A600085E276DE48EE53E060E070E084E270DE1E
:100A700044EF51E060E070E086E26ADE40E45DE071
:100A800063E870E087E264DE48E755E060E070E02C
:100A90008AE25EDE4AE050E060E070E08BE258DE21
:100AA0004AE050E060E070E08CE252DE45E050E069
:100AB00060E070E080E04CDE48ED55E064E171E01C
:100AC00080E146DE1E821F82188683EA8987AE0196
:100AD0004F5F5F4FBE016A5F7F4F80EAFFDD10927C
:100AE0009D0210929C0210929B0210929A02109208
:100AF0009902109298028DE991E090939F02809361
:100B00009E0280918E0296EF980F943048F02EEC62
:100B1000280F243028F022EC280F283008F06EC06F
:100B20002DEB30E030939902209398022BE931E0CD
:100B300030939B0220939A022CE231E030939D0285
:100B400020939C02943060F02EEC280F243040F06B
:100B500022EC280F283008F4E7C1A0E0B0E0E6C19D
:100B6000A8E6B0E0E8E6F0E02081943018F08E537B
:100B7000883010F081E001C084E0822B8C9380915A
:100B80008E0296EF980F943058F02EEC280F2430F8
:100B900038F022EC280F283030F020E030E005C09B
:100BA0002BE630E002C02DE630E030939602209331
:100BB0009502943010F49AEF0BC0823381F08333A6
:100BC00081F0843381F092EC980F983070F492ECBD
:100BD000980F81E001C0880F9A95EAF707C088E076
:100BE00005C084E003C082E001C081E080939702E9
:100BF00080919E0290919F020197F1F780919C0253
:100C000090919D02892B19F180917A0290917B023B
:100C100022E082389207D9F0009709F0F5DC809144
:100C2000A0028E7F8093A002109279021092780227
:100C300082E892E090937B0280937A02E0919502A1
:100C4000F0919602908180919702892B808382E1B6
:100C500092E0F4DC88E192E0F1DC60E080917E02D9
:100C600051DB009180021091810261E0802FC6DB90
:100C7000F801FF27EA5FFD4FE4914E2F50E0FA01A3
:100C80003197E231F10508F0B8C08827EC57FF4FE3
:100C90008F4F3CC284B5806884BD8AE087BDB0C0F8
:100CA00084B5806284BD8AE088BDAAC0809180003E
:100CB0008068809380008AE090E090938900809320
:100CC00088009EC0809180008062809380008AE0CE
:100CD00090E090938B0080938A0092C08091800076
:100CE0008860809380008AE090E090938D008093EC
:100CF0008C0086C08091B00080688093B0008AE04C
:100D00008093B3007DC08091B00080628093B0007A
:100D10008AE08093B40074C08091900080688093D2
:100D200090008AE090E0909399008093980068C0CA
:100D3000809190008062809390008AE090E0909390
:100D40009B0080939A005CC08091900088608093A3
:100D500090008AE090E090939D0080939C0050C0AA
:100D60008091A00080688093A0008091A0008F7B7C
:100D70008093A0008AE090E09093A9008093A8005F
:100D80003FC08091A00080628093A0008AE090E044
:100D90009093AB008093AA0033C08091A00088603C
:100DA0008093A0008AE090E09093AD008093AC0027
:100DB00027C0809120018068809320018AE090E024
:100DC00090932901809328011BC0809120018062AB
:100DD000809320018AE090E090932B0180932A0178
:100DE0000FC0809120018860809320018AE090E00C
:100DF00090932D0180932C0103C060E0802F82DA54
:100E000061E081E3FBDA60E081E37CDA61E080E3CA
:100E1000F5DA60E080E376DA43ED55EC61E070E00E
:100E20008CE696DC43ED55EC61E070E08CE690DCFE
:100E300043ED55EC61E070E08CE68ADC43ED55EC67
:100E400061E070E08CE684DC40E058E36FEF7FEF18
:100E50008DE27EDC00E010E0AE014F5F5F4F60E0AE
:100E600070E081E23BDCAE014F5F5F4F60E070E01D
:100E700081E234DCAE014F5F5F4F60E070E081E201
:100E80002DDC8BE192E0DADB698170E080E090E0BC
:100E900040E1E5DB84E292E0D1DB6A8170E080E052
:100EA00090E040E1DCDB6B8170E080E090E040E1CD
:100EB000D6DB6C8170E080E090E040E1D0DB6D81BA
:100EC00070E080E090E040E1CADB88E192E0B6DBD0
:100ED000D1DA4B015C0188EEC82E83E0D82EE12CDC
:100EE000F12CC8DADC01CB0188199909AA09BB09E0
:100EF000883E9340A105B10558F081E0C81AD10899
:100F0000E108F10828EE820E23E0921EA11CB11C1C
:100F1000C114D104E104F10421F70115110509F40C
:100F20009BCF0E94000098CFA8E6B0E0283008F4DC
:100F300019CEE0E0F0E018CECF93CFB7F8948091CF
:100F40002E02811123C0EFEAF1E08491E5EFF1E098
:100F50009491E82FF0E0EE0FFF1FEA5BFE4FA591A2
:100F6000B491EC91E92319F461E085E3CBD961E018
:100F700085E344DA8CB580618CBD8CB580648CBD12
:100F800061E084E33BDA61E083E338DA80912E02AA
:100F90008F5F80932E02CFBF8AE090E090937D0216
:100FA00080937C0280E290E090937F0280937E02A7
:100FB00089E090E0909381028093800210928502F4
:100FC0001092840288EE93E0A0E0B0E08093860265
:100FD00090938702A0938802B093890284E092E004
:100FE0009093830280938202109299021092980249
:100FF00010929B0210929A0210929D0210929C02F3
:1010000010929F0210929E026091A0026E7F6D7FEF
:101010006093A0026695617081E068278FE072D9C5
:1010200061E08FE0EBD9EFECF1E0E491E093920224
:10103000E9E8F1E0E491F0E0EE0FFF1FE05AFE4F27
:1010400085919491909394028093930260E08EE056
:10105000D5D98091A00281FD03C061E08EE052D914
:101060008EE080938E02EEECF1E0E491E0938F024B
:10107000E8E8F1E0E491F0E0EE0FFF1FE45DFE4FE1
:10108000859194919093910280939002CF910895CD
:1010900084E092E0909383028093820282E892E05F
:1010A000B3CA97FB072E16F4009406D077FD08D03C
:1010B00035D007FC05D03EF4909581959F4F08955B
:1010C000709561957F4F0895A1E21A2EAA1BBB1B54
:1010D000FD010DC0AA1FBB1FEE1FFF1FA217B30704
:1010E000E407F50720F0A21BB30BE40BF50B661F1A
:1010F000771F881F991F1A9469F7609570958095DE
:1011000090959B01AC01BD01CF010895EE0FFF1F2B
:10111000881F8BBF0790F691E02D1994AA1BBB1B6B
:1011200051E107C0AA1FBB1FA617B70710F0A61BE7
:10113000B70B881F991F5A95A9F780959095BC0108
:10114000CD01089581E090E0F89400C011E0C7E27D
:10115000D1E000E005C0802FFE01D8DF2196011DFF
:0E116000C832D10780E00807B1F7F894FFCF3E
:10116E0000000000780257011B037702CC02E30255
:10117E005F025245414459000D0A00737461747543
:0E118E00733A20002C20646174613A20000046
:00000001FF
